:020000040800F2
:100000000004002045010008A90200085102000870
:10001000A50200088D010008F1030008000000009F
:10002000000000000000000000000000C9020008FD
:100030009101000800000000AD02000895030008CF
:100040005F0100085F0100085F0100085F01000810
:100050005F0100085F0100085F0100085F01000800
:100060005F0100085F0100085F0100085F010008F0
:100070005F0100085F0100085F0100085F010008E0
:100080005F0100085F0100085F0100085F010008D0
:100090005F0100085F0100085F0100085F010008C0
:1000A0005F0100085F0100085F0100085F010008B0
:1000B0005F0100085F0100085F0100085F010008A0
:1000C0005F0100085F0100085F0100085F01000890
:1000D0005F0100085F0100085F0100085F01000880
:1000E0005F0100085F0100085F0100085F01000870
:1000F0005F0100085F0100085F0100085F01000860
:100100005F0100085F0100085F0100085F0100084F
:100110005F0100085F0100085F0100085F0100083F
:100120005F0100085F0100085F0100085F0100082F
:10013000DFF80CD000F018F8004800471904000858
:10014000000400200648804706480047FEE7FEE717
:10015000FEE7FEE7FEE7FEE7FEE7FEE7FEE7FEE777
:100160009903000831010008064C074D06E0E068DD
:1001700040F0010394E8070098471034AC42F6D3EE
:10018000FFF7DAFF6404000874040008FEE70000CB
:10019000704700002DE9F041CA7802F00F0CD30639
:1001A00044BF8B784CEA030C09880B0621D0056804
:1001B00000234FF001084FF00F0E002608E000BFAB
:1001C000282A08BF47610136082E03F104030FD027
:1001D00008FA06F70F42F6D00EFA03F425EA0404F3
:1001E0000CFA03F5482A45EA0405E9D10761EAE774
:1001F0000560B1F5807F38BFBDE8F0814468002319
:100200004FF4807E4FF00F08002607E0282A08BF31
:1002100047610136082E03F1040310D00EFA06F7E9
:1002200007EA0105BD42F4D108FA03F5AC430CFA24
:1002300003F5482A44EA0504E8D10761E9E7446088
:10024000BDE8F0818068084018BF012070470000B9
:10025000FEE7000080B582B00420012100F028F8FC
:100260000120C0F20340019040F60000C4F20100FA
:1002700001A9FFF78FFF02B080BD000080B582B0FA
:100280000820012100F014F80120C1F203000190C0
:1002900040F60040C4F2010001A9FFF77BFF02B065
:1002A00080BD0000FEE700007047000070470000BE
:1002B000002941F21801C4F202010A680CBF22EAC7
:1002C00000001043086070477047000080B500F0E0
:1002D00001F880BD82B041F204000021C4F20200A6
:1002E0000191009150F8041C41F4803140F8041C45
:1002F00050F8041C01F40031009101990131019181
:10030000009919B90199B1F5A06FF1D150F8041C09
:10031000890354BF0021012100910099012936D1A0
:1003200042F20001C4F202010A6842F010020A60BF
:100330000A6822F003020A600A6842F002020A60B8
:100340000168016001680160016841F48061016039
:10035000016821F47C110160016841F4E811016039
:1003600050F8041C41F0807140F8041C50F8041C43
:100370008901FBD5016821F003010160016841F0AA
:1003800002010160016801F00C010829FAD102B0F4
:10039000704700007047000080B541F20000C4F2D1
:1003A00002000168002241F0010101604168CFF6BE
:1003B000FF021140416001684FF6FF72CFF6F6620E
:1003C00011400160016821F480210160416821F43D
:1003D000FE0141604FF41F018160FFF777FF4EF689
:1003E0000850CEF200004FF00061016080BD0000B7
:1003F000FEE70000B0B50C460546FFF723FF0128D5
:100400001CBF0020B0BD00BF28462146FFF71AFFE1
:100410000128F9D00120B0BD40F60C45C4F2010519
:10042000FFF72CFFFFF716FF40F60004C4F20104AB
:1004300020460121FFF7DEFF0128F9D1286880F06E
:1004400001002860F4E702E008C8121F08C1002A72
:10045000FAD170477047002001E001C1121F002A45
:10046000FBD1704774040008000000200004000065
:040470005604000826
:0400000508000131BD
:00000001FF
