:020000040800F2
:1000000000040020450100089D010008950100083A
:10001000990100088D010008CD02000800000000D1
:10002000000000000000000000000000A501000822
:100030009101000800000000A10100087102000801
:100040005F0100085F0100085F0100085F01000810
:100050005F0100085F0100085F0100085F01000800
:100060005F0100085F0100085F0100085F010008F0
:100070005F0100085F0100085F0100085F010008E0
:100080005F0100085F0100085F0100085F010008D0
:100090005F0100085F0100085F0100085F010008C0
:1000A0005F0100085F0100085F0100085F010008B0
:1000B0005F0100085F0100085F0100085F010008A0
:1000C0005F0100085F0100085F0100085F01000890
:1000D0005F0100085F0100085F0100085F01000880
:1000E0005F0100085F0100085F0100085F01000870
:1000F0005F0100085F0100085F0100085F01000860
:100100005F0100085F0100085F0100085F0100084F
:100110005F0100085F0100085F0100085F0100083F
:100120005F0100085F0100085F0100085F0100082F
:10013000DFF80CD000F018F800480047D1020008A2
:10014000000400200648804706480047FEE7FEE717
:10015000FEE7FEE7FEE7FEE7FEE7FEE7FEE7FEE777
:100160007502000831010008064C074D06E0E06802
:1001700040F0010394E8070098471034AC42F6D3EE
:10018000FFF7DAFFF402000804030008FEE70000AE
:1001900070470000FEE70000FEE700007047000027
:1001A000704700007047000080B500F001F880BD86
:1001B00082B041F204000021C4F2020001910091DA
:1001C00050F8041C41F4803140F8041C50F8041C21
:1001D00001F400310091019901310191009919B99F
:1001E0000199B1F5A06FF1D150F8041C890354BFF7
:1001F0000021012100910099012936D142F200012C
:10020000C4F202010A6842F010020A600A6822F091
:1002100003020A600A6842F002020A600168016093
:1002200001680160016841F480610160016821F4A6
:100230007C110160016841F4E811016050F8041C70
:1002400041F0807140F8041C50F8041C8901FBD572
:10025000016821F003010160016841F002010160C1
:10026000016801F00C010829FAD102B070470000C2
:100270007047000080B541F20000C4F2020001683E
:10028000002241F0010101604168CFF6FF021140F8
:10029000416001684FF6FF72CFF6F66211400160CF
:1002A000016821F480210160416821F4FE01416070
:1002B0004FF41F018160FFF777FF4EF60850CEF232
:1002C00000004FF00061016080BD0000FEE700000B
:1002D0000020704702E008C8121F08C1002AFAD1A6
:1002E00070477047002001E001C1121F002AFBD1B6
:1002F0007047000004030008000000200004000014
:04030000E40200080B
:0400000508000131BD
:00000001FF
