:020000040800F2
:100000000004002045010008A9030008710300084E
:10001000A50300088D010008850500080000000008
:10002000000000000000000000000000E9030008DC
:100030009101000800000000AD0300081905000848
:100040005F0100085F0100085F0100085F01000810
:100050005F0100085F0100085F0100085F01000800
:100060005F0100085F0100085F0100085F010008F0
:100070005F0100085F0100085F0100085F010008E0
:100080005F0100085F0100085F0100085F010008D0
:100090005F0100085F0100085F0100085F010008C0
:1000A0005F0100085F0100085F0100085F010008B0
:1000B0005F0100085F0100085F0100085F010008A0
:1000C0005F0100085F0100085F0100085F01000890
:1000D0005F0100085F0100085F0100085F01000880
:1000E0005F0100085F0100085F0100085F01000870
:1000F0005F0100085F0100085F0100085F01000860
:100100005F0100085F0100085F0100085F0100084F
:100110005F0100085F0100085F0100085F0100083F
:100120005F0100085F0100085F0100085F0100082F
:10013000DFF80CD000F018F80048004789050008E7
:10014000000400200648804706480047FEE7FEE717
:10015000FEE7FEE7FEE7FEE7FEE7FEE7FEE7FEE777
:100160001D05000831010008064C074D06E0E06857
:1001700040F0010394E8070098471034AC42F6D3EE
:10018000FFF7DAFFE4050008F4050008FFE7FEE7E3
:100190007047000081B00090FFE70098002805D06C
:1001A000FFE7FFE7009801380090F6E701B07047DD
:1001B00088B007900691002005900490039002906B
:1001C000019000900698806800F00F000590069856
:1001D000007AC006002806D5FFE706984068059912
:1001E00008430590FFE70698007800284FD0FFE706
:1001F00007980068019000200390FFE70398072804
:1002000041D8FFE70398012101FA00F00290069817
:1002100000880299084004900498029988422DD1E0
:10022000FFE703988000029002980F2101FA00F086
:1002300000900098019921EA000001900598029928
:10024000884001990843019006988068282807D1C2
:10025000FFE70398012101FA00F0079948610CE0DB
:1002600006988068482807D1FFE70398012101FA22
:1002700000F007990861FFE7FFE7FFE7FFE7039852
:1002800001300390BAE7019807990860FFE70698E4
:100290000088B0F5807F51DBFFE707984068019048
:1002A00000200390FFE70398072843D8FFE703984F
:1002B0000830012101FA00F00290069800880299A6
:1002C000084004900498029988422ED1FFE70398D1
:1002D0008000029002980F2101FA00F0009000982F
:1002E000019921EA0000019005980299884001993E
:1002F0000843019006988068282808D1FFE70398F2
:100300000830012101FA00F007994861FFE70698DB
:100310008068482808D1FFE703980830012101FAD6
:1003200000F007990861FFE7FFE7FFE70398013056
:100330000390B8E7019807994860FFE708B0704755
:1003400082B00A460190ADF80210BDF80200019992
:10035000486102B07047000082B00A460190ADF8D3
:100360000210BDF802000199086102B07047000058
:10037000FFE7FEE780B584B008200121009100F07E
:1003800017F80098ADF804001021039103210291A1
:1003900040F60040C4F2010001A9FFF709FF04B0D4
:1003A00080BD0000FFE7FEE77047000070470000D7
:1003B00082B0019000910098002809D0FFE70198D1
:1003C00041F21801C4F202010A681043086009E012
:1003D000019841F21801C4F202010A6822EA000001
:1003E0000860FFE702B070477047000080B500F07A
:1003F00001F880BD83B000200290019041F200001E
:10040000C4F20200016841F480310160FFE741F26B
:100410000000C4F20200006800F40030019002986D
:1004200001300290FFE7019800210028009107D1D8
:10043000FFE70298B0F5A06018BF01200090FFE729
:100440000098C0070028E2D1FFE741F20000C4F2A3
:10045000020000688003002803D5FFE70120019017
:1004600002E000200190FFE70198012850D1FFE74A
:1004700042F20000C4F20200016841F01001016084
:10048000016821F003010160016841F0020101608F
:1004900041F20400C4F202000168016001680160D9
:1004A000016841F480610160016821F47C11016000
:1004B000016841F4E811016041F20000C4F2020059
:1004C000016841F080710160FFE741F20000C4F271
:1004D000020000688001002801D4FFE7F5E741F23F
:1004E0000400C4F20200016821F003010160016808
:1004F00041F002010160FFE741F20400C4F2020092
:10050000006800F00C00082801D0FFE7F4E700E0E5
:10051000FFE703B0704700007047000080B541F26C
:100520000000C4F20200016841F00101016041F2E3
:100530000401C4F202010A680023CFF6FF031A4047
:100540000A6002684FF6FF73CFF6F6631A40026046
:10055000026822F480220260086820F4FE0008602D
:1005600041F20800C4F202004FF41F010160FFF7DE
:100570003DFF4EF60850CEF200004FF000610160E2
:1005800080BD0000FFE7FEE780B584B00020039047
:10059000FFF7F0FEFFE74FF6FF70C0F20F0002908A
:1005A000FFF7F8FD40F60040C4F201000121019080
:1005B0000091FFF7C5FE0298FFF7ECFD0198009946
:1005C000FFF7CAFEE7E702E008C8121F08C1002AC9
:1005D000FAD170477047002001E001C1121F002AC4
:1005E000FBD17047F4050008000000200004000063
:0405F000D605000824
:0400000508000131BD
:00000001FF
